{
  "_format": "hh-sol-artifact-1",
  "contractName": "TradeEscrow",
  "sourceName": "contracts/TradeEscrow.sol",
  "abi": [
    {
      "inputs": [
        {
          "internalType": "address",
          "name": "_usdc",
          "type": "address"
        }
      ],
      "stateMutability": "nonpayable",
      "type": "constructor"
    },
    {
      "inputs": [],
      "name": "ReentrancyGuardReentrantCall",
      "type": "error"
    },
    {
      "anonymous": false,
      "inputs": [
        {
          "indexed": true,
          "internalType": "address",
          "name": "to",
          "type": "address"
        },
        {
          "indexed": false,
          "internalType": "uint256",
          "name": "amount",
          "type": "uint256"
        }
      ],
      "name": "FeesWithdrawn",
      "type": "event"
    },
    {
      "anonymous": false,
      "inputs": [
        {
          "indexed": true,
          "internalType": "uint256",
          "name": "tradeId",
          "type": "uint256"
        },
        {
          "indexed": true,
          "internalType": "address",
          "name": "buyer",
          "type": "address"
        }
      ],
      "name": "TradeCompleted",
      "type": "event"
    },
    {
      "anonymous": false,
      "inputs": [
        {
          "indexed": true,
          "internalType": "uint256",
          "name": "tradeId",
          "type": "uint256"
        },
        {
          "indexed": true,
          "internalType": "address",
          "name": "seller",
          "type": "address"
        },
        {
          "indexed": false,
          "internalType": "uint256",
          "name": "amount",
          "type": "uint256"
        },
        {
          "indexed": false,
          "internalType": "uint256",
          "name": "sellerFee",
          "type": "uint256"
        },
        {
          "indexed": false,
          "internalType": "uint256",
          "name": "buyerFee",
          "type": "uint256"
        },
        {
          "indexed": false,
          "internalType": "uint256",
          "name": "createdAt",
          "type": "uint256"
        }
      ],
      "name": "TradeCreated",
      "type": "event"
    },
    {
      "anonymous": false,
      "inputs": [
        {
          "indexed": true,
          "internalType": "uint256",
          "name": "tradeId",
          "type": "uint256"
        }
      ],
      "name": "TradeDisputed",
      "type": "event"
    },
    {
      "anonymous": false,
      "inputs": [
        {
          "indexed": true,
          "internalType": "uint256",
          "name": "tradeId",
          "type": "uint256"
        }
      ],
      "name": "TradeExpired",
      "type": "event"
    },
    {
      "anonymous": false,
      "inputs": [
        {
          "indexed": true,
          "internalType": "uint256",
          "name": "tradeId",
          "type": "uint256"
        },
        {
          "indexed": true,
          "internalType": "address",
          "name": "seller",
          "type": "address"
        }
      ],
      "name": "TradeMarkedAsSent",
      "type": "event"
    },
    {
      "anonymous": false,
      "inputs": [
        {
          "indexed": true,
          "internalType": "uint256",
          "name": "tradeId",
          "type": "uint256"
        },
        {
          "indexed": true,
          "internalType": "address",
          "name": "buyer",
          "type": "address"
        },
        {
          "indexed": false,
          "internalType": "uint256",
          "name": "totalAmountPaid",
          "type": "uint256"
        },
        {
          "indexed": false,
          "internalType": "uint256",
          "name": "paidAt",
          "type": "uint256"
        }
      ],
      "name": "TradePaid",
      "type": "event"
    },
    {
      "anonymous": false,
      "inputs": [
        {
          "indexed": true,
          "internalType": "uint256",
          "name": "tradeId",
          "type": "uint256"
        },
        {
          "indexed": true,
          "internalType": "address",
          "name": "buyer",
          "type": "address"
        }
      ],
      "name": "TradeRefunded",
      "type": "event"
    },
    {
      "anonymous": false,
      "inputs": [
        {
          "indexed": true,
          "internalType": "uint256",
          "name": "tradeId",
          "type": "uint256"
        },
        {
          "indexed": false,
          "internalType": "bool",
          "name": "resolvedToBuyer",
          "type": "bool"
        }
      ],
      "name": "TradeResolved",
      "type": "event"
    },
    {
      "inputs": [],
      "name": "buyerFee",
      "outputs": [
        {
          "internalType": "uint256",
          "name": "",
          "type": "uint256"
        }
      ],
      "stateMutability": "view",
      "type": "function"
    },
    {
      "inputs": [
        {
          "internalType": "uint256",
          "name": "tradeId",
          "type": "uint256"
        }
      ],
      "name": "confirmReception",
      "outputs": [],
      "stateMutability": "nonpayable",
      "type": "function"
    },
    {
      "inputs": [
        {
          "internalType": "uint256",
          "name": "_amount",
          "type": "uint256"
        }
      ],
      "name": "createTrade",
      "outputs": [
        {
          "internalType": "uint256",
          "name": "",
          "type": "uint256"
        }
      ],
      "stateMutability": "nonpayable",
      "type": "function"
    },
    {
      "inputs": [
        {
          "internalType": "uint256",
          "name": "tradeId",
          "type": "uint256"
        }
      ],
      "name": "disputeTrade",
      "outputs": [],
      "stateMutability": "nonpayable",
      "type": "function"
    },
    {
      "inputs": [
        {
          "internalType": "uint256",
          "name": "tradeId",
          "type": "uint256"
        }
      ],
      "name": "expireTrade",
      "outputs": [],
      "stateMutability": "nonpayable",
      "type": "function"
    },
    {
      "inputs": [],
      "name": "feeBalance",
      "outputs": [
        {
          "internalType": "uint256",
          "name": "",
          "type": "uint256"
        }
      ],
      "stateMutability": "view",
      "type": "function"
    },
    {
      "inputs": [
        {
          "internalType": "uint256",
          "name": "tradeId",
          "type": "uint256"
        }
      ],
      "name": "getTrade",
      "outputs": [
        {
          "internalType": "address",
          "name": "seller",
          "type": "address"
        },
        {
          "internalType": "address",
          "name": "buyer",
          "type": "address"
        },
        {
          "internalType": "uint256",
          "name": "amount",
          "type": "uint256"
        },
        {
          "internalType": "uint256",
          "name": "createdAt",
          "type": "uint256"
        },
        {
          "internalType": "uint256",
          "name": "paidAt",
          "type": "uint256"
        },
        {
          "internalType": "uint256",
          "name": "sentAt",
          "type": "uint256"
        },
        {
          "internalType": "enum TradeEscrow.TradeStatus",
          "name": "status",
          "type": "uint8"
        }
      ],
      "stateMutability": "view",
      "type": "function"
    },
    {
      "inputs": [
        {
          "internalType": "uint256",
          "name": "tradeId",
          "type": "uint256"
        }
      ],
      "name": "markAsSent",
      "outputs": [],
      "stateMutability": "nonpayable",
      "type": "function"
    },
    {
      "inputs": [],
      "name": "owner",
      "outputs": [
        {
          "internalType": "address",
          "name": "",
          "type": "address"
        }
      ],
      "stateMutability": "view",
      "type": "function"
    },
    {
      "inputs": [
        {
          "internalType": "uint256",
          "name": "tradeId",
          "type": "uint256"
        }
      ],
      "name": "payTrade",
      "outputs": [],
      "stateMutability": "nonpayable",
      "type": "function"
    },
    {
      "inputs": [
        {
          "internalType": "uint256",
          "name": "tradeId",
          "type": "uint256"
        },
        {
          "internalType": "bool",
          "name": "toBuyer",
          "type": "bool"
        }
      ],
      "name": "resolveDispute",
      "outputs": [],
      "stateMutability": "nonpayable",
      "type": "function"
    },
    {
      "inputs": [],
      "name": "sellerFee",
      "outputs": [
        {
          "internalType": "uint256",
          "name": "",
          "type": "uint256"
        }
      ],
      "stateMutability": "view",
      "type": "function"
    },
    {
      "inputs": [
        {
          "internalType": "uint256",
          "name": "_sellerFee",
          "type": "uint256"
        },
        {
          "internalType": "uint256",
          "name": "_buyerFee",
          "type": "uint256"
        }
      ],
      "name": "setFees",
      "outputs": [],
      "stateMutability": "nonpayable",
      "type": "function"
    },
    {
      "inputs": [],
      "name": "tradeCounter",
      "outputs": [
        {
          "internalType": "uint256",
          "name": "",
          "type": "uint256"
        }
      ],
      "stateMutability": "view",
      "type": "function"
    },
    {
      "inputs": [
        {
          "internalType": "uint256",
          "name": "",
          "type": "uint256"
        }
      ],
      "name": "trades",
      "outputs": [
        {
          "internalType": "address",
          "name": "seller",
          "type": "address"
        },
        {
          "internalType": "address",
          "name": "buyer",
          "type": "address"
        },
        {
          "internalType": "uint256",
          "name": "amount",
          "type": "uint256"
        },
        {
          "internalType": "uint256",
          "name": "sellerFee",
          "type": "uint256"
        },
        {
          "internalType": "uint256",
          "name": "buyerFee",
          "type": "uint256"
        },
        {
          "internalType": "uint256",
          "name": "createdAt",
          "type": "uint256"
        },
        {
          "internalType": "uint256",
          "name": "paidAt",
          "type": "uint256"
        },
        {
          "internalType": "uint256",
          "name": "sentAt",
          "type": "uint256"
        },
        {
          "internalType": "enum TradeEscrow.TradeStatus",
          "name": "status",
          "type": "uint8"
        }
      ],
      "stateMutability": "view",
      "type": "function"
    },
    {
      "inputs": [],
      "name": "usdc",
      "outputs": [
        {
          "internalType": "contract IERC20",
          "name": "",
          "type": "address"
        }
      ],
      "stateMutability": "view",
      "type": "function"
    },
    {
      "inputs": [
        {
          "internalType": "address",
          "name": "to",
          "type": "address"
        }
      ],
      "name": "withdrawFees",
      "outputs": [],
      "stateMutability": "nonpayable",
      "type": "function"
    }
  ],
  "bytecode": "0x60806040526101f46005556101f46006553480156200001d57600080fd5b50604051620033e1380380620033e183398181016040528101906200004391906200013e565b600160008190555080600160006101000a81548173ffffffffffffffffffffffffffffffffffffffff021916908373ffffffffffffffffffffffffffffffffffffffff16021790555033600260006101000a81548173ffffffffffffffffffffffffffffffffffffffff021916908373ffffffffffffffffffffffffffffffffffffffff1602179055505062000170565b600080fd5b600073ffffffffffffffffffffffffffffffffffffffff82169050919050565b60006200010682620000d9565b9050919050565b6200011881620000f9565b81146200012457600080fd5b50565b60008151905062000138816200010d565b92915050565b600060208284031215620001575762000156620000d4565b5b6000620001678482850162000127565b91505092915050565b61326180620001806000396000f3fe608060405234801561001057600080fd5b506004361061010b5760003560e01c80633e413bee116100a2578063660d15b511610071578063660d15b51461029c5780638ba9f708146102ba5780638da5cb5b146102d6578063abe4d122146102f4578063e1f3d55a146103245761010b565b80633e413bee146102265780635de6c42f146102445780635eeca5a91461026257806360b71d4e1461027e5761010b565b80632db25e05116100de5780632db25e051461019c5780632f8b123f146101d257806334b25ee2146101ee5780633b2f87bf1461020a5761010b565b80630b78f9c014610110578063164e68de1461012c5780631bfdcc52146101485780631e6c598e14610164575b600080fd5b61012a600480360381019061012591906121d4565b610342565b005b61014660048036038101906101419190612272565b610437565b005b610162600480360381019061015d919061229f565b610662565b005b61017e6004803603810190610179919061229f565b61099e565b60405161019399989796959493929190612361565b60405180910390f35b6101b660048036038101906101b1919061229f565b610a39565b6040516101c997969594939291906123ee565b60405180910390f35b6101ec60048036038101906101e7919061229f565b610ae4565b005b61020860048036038101906102039190612495565b610c97565b005b610224600480360381019061021f919061229f565b6111a2565b005b61022e61158f565b60405161023b9190612534565b60405180910390f35b61024c6115b5565b604051610259919061254f565b60405180910390f35b61027c6004803603810190610277919061229f565b6115bb565b005b610286611cb1565b604051610293919061254f565b60405180910390f35b6102a4611cb7565b6040516102b1919061254f565b60405180910390f35b6102d460048036038101906102cf919061229f565b611cbd565b005b6102de611e50565b6040516102eb919061256a565b60405180910390f35b61030e6004803603810190610309919061229f565b611e76565b60405161031b919061254f565b60405180910390f35b61032c6120d0565b604051610339919061254f565b60405180910390f35b600260009054906101000a900473ffffffffffffffffffffffffffffffffffffffff1673ffffffffffffffffffffffffffffffffffffffff163373ffffffffffffffffffffffffffffffffffffffff16146103d2576040517f08c379a00000000000000000000000000000000000000000000000000000000081526004016103c9906125e2565b60405180910390fd5b61271082111580156103e657506127108111155b610425576040517f08c379a000000000000000000000000000000000000000000000000000000000815260040161041c9061264e565b60405180910390fd5b81600581905550806006819055505050565b600260009054906101000a900473ffffffffffffffffffffffffffffffffffffffff1673ffffffffffffffffffffffffffffffffffffffff163373ffffffffffffffffffffffffffffffffffffffff16146104c7576040517f08c379a00000000000000000000000000000000000000000000000000000000081526004016104be906125e2565b60405180910390fd5b6104cf6120d6565b600060045411610514576040517f08c379a000000000000000000000000000000000000000000000000000000000815260040161050b906126ba565b60405180910390fd5b6000600454905060006004819055506000600160009054906101000a900473ffffffffffffffffffffffffffffffffffffffff1673ffffffffffffffffffffffffffffffffffffffff1663a9059cbb84846040518363ffffffff1660e01b81526004016105829291906126da565b6020604051808303816000875af11580156105a1573d6000803e3d6000fd5b505050506040513d601f19601f820116820180604052508101906105c59190612718565b905080610607576040517f08c379a00000000000000000000000000000000000000000000000000000000081526004016105fe90612791565b60405180910390fd5b8273ffffffffffffffffffffffffffffffffffffffff167fc0819c13be868895eb93e40eaceb96de976442fa1d404e5c55f14bb65a8c489a8360405161064d919061254f565b60405180910390a2505061065f61211c565b50565b806007600082815260200190815260200160002060010160009054906101000a900473ffffffffffffffffffffffffffffffffffffffff1673ffffffffffffffffffffffffffffffffffffffff163373ffffffffffffffffffffffffffffffffffffffff1614610707576040517f08c379a00000000000000000000000000000000000000000000000000000000081526004016106fe906127fd565b60405180910390fd5b61070f6120d6565b60006007600084815260200190815260200160002090506002600681111561073a576107396122ea565b5b8160080160009054906101000a900460ff16600681111561075e5761075d6122ea565b5b148061079e5750600680811115610778576107776122ea565b5b8160080160009054906101000a900460ff16600681111561079c5761079b6122ea565b5b145b6107dd576040517f08c379a00000000000000000000000000000000000000000000000000000000081526004016107d490612869565b60405180910390fd5b6000806107f7836002015484600401548560030154612126565b925092505060038360080160006101000a81548160ff02191690836006811115610824576108236122ea565b5b0217905550806004600082825461083b91906128b8565b925050819055506000600160009054906101000a900473ffffffffffffffffffffffffffffffffffffffff1673ffffffffffffffffffffffffffffffffffffffff1663a9059cbb8560000160009054906101000a900473ffffffffffffffffffffffffffffffffffffffff16856040518363ffffffff1660e01b81526004016108c59291906126da565b6020604051808303816000875af11580156108e4573d6000803e3d6000fd5b505050506040513d601f19601f820116820180604052508101906109089190612718565b90508061094a576040517f08c379a000000000000000000000000000000000000000000000000000000000815260040161094190612938565b60405180910390fd5b3373ffffffffffffffffffffffffffffffffffffffff16867f426b87d30760ed04a097c0113c943b597a538ae1483a0386bca1ea9380947aa160405160405180910390a35050505061099a61211c565b5050565b60076020528060005260406000206000915090508060000160009054906101000a900473ffffffffffffffffffffffffffffffffffffffff16908060010160009054906101000a900473ffffffffffffffffffffffffffffffffffffffff16908060020154908060030154908060040154908060050154908060060154908060070154908060080160009054906101000a900460ff16905089565b600080600080600080600080600760008a815260200190815260200160002090508060000160009054906101000a900473ffffffffffffffffffffffffffffffffffffffff168160010160009054906101000a900473ffffffffffffffffffffffffffffffffffffffff1682600201548360050154846006015485600701548660080160009054906101000a900460ff16975097509750975097509750975050919395979092949650565b806007600082815260200190815260200160002060000160009054906101000a900473ffffffffffffffffffffffffffffffffffffffff1673ffffffffffffffffffffffffffffffffffffffff163373ffffffffffffffffffffffffffffffffffffffff1614610b89576040517f08c379a0000000000000000000000000000000000000000000000000000000008152600401610b80906129a4565b60405180910390fd5b600060076000848152602001908152602001600020905060016006811115610bb457610bb36122ea565b5b8160080160009054906101000a900460ff166006811115610bd857610bd76122ea565b5b14610c18576040517f08c379a0000000000000000000000000000000000000000000000000000000008152600401610c0f90612a10565b60405180910390fd5b60028160080160006101000a81548160ff02191690836006811115610c4057610c3f6122ea565b5b02179055504281600701819055503373ffffffffffffffffffffffffffffffffffffffff16837f78f7cb784fbfa92eb2518b72e240c768f7692c9b5a9ba062c307ad4082e6662560405160405180910390a3505050565b600260009054906101000a900473ffffffffffffffffffffffffffffffffffffffff1673ffffffffffffffffffffffffffffffffffffffff163373ffffffffffffffffffffffffffffffffffffffff1614610d27576040517f08c379a0000000000000000000000000000000000000000000000000000000008152600401610d1e906125e2565b60405180910390fd5b610d2f6120d6565b6000600760008481526020019081526020016000209050600680811115610d5957610d586122ea565b5b8160080160009054906101000a900460ff166006811115610d7d57610d7c6122ea565b5b14610dbd576040517f08c379a0000000000000000000000000000000000000000000000000000000008152600401610db490612a7c565b60405180910390fd5b8115610f84576000610ddc826002015483600401548460030154612126565b5050905060058260080160006101000a81548160ff02191690836006811115610e0857610e076122ea565b5b02179055506000600160009054906101000a900473ffffffffffffffffffffffffffffffffffffffff1673ffffffffffffffffffffffffffffffffffffffff1663a9059cbb8460010160009054906101000a900473ffffffffffffffffffffffffffffffffffffffff16846040518363ffffffff1660e01b8152600401610e909291906126da565b6020604051808303816000875af1158015610eaf573d6000803e3d6000fd5b505050506040513d601f19601f82011682018060405250810190610ed39190612718565b905080610f15576040517f08c379a0000000000000000000000000000000000000000000000000000000008152600401610f0c90612ae8565b60405180910390fd5b8260010160009054906101000a900473ffffffffffffffffffffffffffffffffffffffff1673ffffffffffffffffffffffffffffffffffffffff16857f150857be37bce7bf75bbe059b257603e1bdcddb96efff8984ba64a390df5922f60405160405180910390a3505061115d565b600080610f9e836002015484600401548560030154612126565b925092505060038360080160006101000a81548160ff02191690836006811115610fcb57610fca6122ea565b5b02179055508060046000828254610fe291906128b8565b925050819055506000600160009054906101000a900473ffffffffffffffffffffffffffffffffffffffff1673ffffffffffffffffffffffffffffffffffffffff1663a9059cbb8560000160009054906101000a900473ffffffffffffffffffffffffffffffffffffffff16856040518363ffffffff1660e01b815260040161106c9291906126da565b6020604051808303816000875af115801561108b573d6000803e3d6000fd5b505050506040513d601f19601f820116820180604052508101906110af9190612718565b9050806110f1576040517f08c379a00000000000000000000000000000000000000000000000000000000081526004016110e890612938565b60405180910390fd5b8360010160009054906101000a900473ffffffffffffffffffffffffffffffffffffffff1673ffffffffffffffffffffffffffffffffffffffff16867f426b87d30760ed04a097c0113c943b597a538ae1483a0386bca1ea9380947aa160405160405180910390a35050505b827fe47c0056c5eee567cbfd614580590d7c24de063cda6e6f9e3b7788325ec9103a8360405161118d9190612b17565b60405180910390a25061119e61211c565b5050565b6007600082815260200190815260200160002060000160009054906101000a900473ffffffffffffffffffffffffffffffffffffffff1673ffffffffffffffffffffffffffffffffffffffff163373ffffffffffffffffffffffffffffffffffffffff1603611246576040517f08c379a000000000000000000000000000000000000000000000000000000000815260040161123d90612b7e565b60405180910390fd5b600060076000838152602001908152602001600020905060006006811115611271576112706122ea565b5b8160080160009054906101000a900460ff166006811115611295576112946122ea565b5b146112d5576040517f08c379a00000000000000000000000000000000000000000000000000000000081526004016112cc90612bea565b60405180910390fd5b600073ffffffffffffffffffffffffffffffffffffffff168160010160009054906101000a900473ffffffffffffffffffffffffffffffffffffffff1673ffffffffffffffffffffffffffffffffffffffff1614611368576040517f08c379a000000000000000000000000000000000000000000000000000000000815260040161135f90612c56565b60405180910390fd5b61a8c0816005015461137a91906128b8565b4211156113bc576040517f08c379a00000000000000000000000000000000000000000000000000000000081526004016113b390612cc2565b60405180910390fd5b60006113d5826002015483600401548460030154612126565b505090506000600160009054906101000a900473ffffffffffffffffffffffffffffffffffffffff1673ffffffffffffffffffffffffffffffffffffffff166323b872dd3330856040518463ffffffff1660e01b815260040161143a93929190612ce2565b6020604051808303816000875af1158015611459573d6000803e3d6000fd5b505050506040513d601f19601f8201168201806040525081019061147d9190612718565b9050806114bf576040517f08c379a00000000000000000000000000000000000000000000000000000000081526004016114b690612d65565b60405180910390fd5b338360010160006101000a81548173ffffffffffffffffffffffffffffffffffffffff021916908373ffffffffffffffffffffffffffffffffffffffff16021790555042836006018190555060018360080160006101000a81548160ff02191690836006811115611533576115326122ea565b5b02179055503373ffffffffffffffffffffffffffffffffffffffff16847f8defc71c56a7180ee4bf41cbb4f9c297371d55bec673387168e2cd725b28c9648442604051611581929190612d85565b60405180910390a350505050565b600160009054906101000a900473ffffffffffffffffffffffffffffffffffffffff1681565b60065481565b6115c36120d6565b806006808111156115d7576115d66122ea565b5b6007600083815260200190815260200160002060080160009054906101000a900460ff16600681111561160d5761160c6122ea565b5b0361164d576040517f08c379a000000000000000000000000000000000000000000000000000000000815260040161164490612dfa565b60405180910390fd5b600060076000848152602001908152602001600020905060006006811115611678576116776122ea565b5b8160080160009054906101000a900460ff16600681111561169c5761169b6122ea565b5b14806116dd5750600160068111156116b7576116b66122ea565b5b8160080160009054906101000a900460ff1660068111156116db576116da6122ea565b5b145b8061171d5750600260068111156116f7576116f66122ea565b5b8160080160009054906101000a900460ff16600681111561171b5761171a6122ea565b5b145b61175c576040517f08c379a000000000000000000000000000000000000000000000000000000000815260040161175390612e66565b60405180910390fd5b600060068111156117705761176f6122ea565b5b8160080160009054906101000a900460ff166006811115611794576117936122ea565b5b1480156117b1575061a8c081600501546117ae91906128b8565b42115b156118165760048160080160006101000a81548160ff021916908360068111156117de576117dd6122ea565b5b0217905550827fcfbcbfeee9ccb107958511dda6b71f9144382df7a0799b7a0aad567f2b6fbce360405160405180910390a250611ca5565b6001600681111561182a576118296122ea565b5b8160080160009054906101000a900460ff16600681111561184e5761184d6122ea565b5b14801561186b575061a8c0816006015461186891906128b8565b42115b15611a32576000611889826002015483600401548460030154612126565b5050905060058260080160006101000a81548160ff021916908360068111156118b5576118b46122ea565b5b02179055506000600160009054906101000a900473ffffffffffffffffffffffffffffffffffffffff1673ffffffffffffffffffffffffffffffffffffffff1663a9059cbb8460010160009054906101000a900473ffffffffffffffffffffffffffffffffffffffff16846040518363ffffffff1660e01b815260040161193d9291906126da565b6020604051808303816000875af115801561195c573d6000803e3d6000fd5b505050506040513d601f19601f820116820180604052508101906119809190612718565b9050806119c2576040517f08c379a00000000000000000000000000000000000000000000000000000000081526004016119b990612ed2565b60405180910390fd5b8260010160009054906101000a900473ffffffffffffffffffffffffffffffffffffffff1673ffffffffffffffffffffffffffffffffffffffff16857f150857be37bce7bf75bbe059b257603e1bdcddb96efff8984ba64a390df5922f60405160405180910390a3505050611ca5565b60026006811115611a4657611a456122ea565b5b8160080160009054906101000a900460ff166006811115611a6a57611a696122ea565b5b148015611a87575061a8c08160070154611a8491906128b8565b42115b15611c6a57600080611aa6836002015484600401548560030154612126565b925092505060038360080160006101000a81548160ff02191690836006811115611ad357611ad26122ea565b5b02179055508060046000828254611aea91906128b8565b925050819055506000600160009054906101000a900473ffffffffffffffffffffffffffffffffffffffff1673ffffffffffffffffffffffffffffffffffffffff1663a9059cbb8560000160009054906101000a900473ffffffffffffffffffffffffffffffffffffffff16856040518363ffffffff1660e01b8152600401611b749291906126da565b6020604051808303816000875af1158015611b93573d6000803e3d6000fd5b505050506040513d601f19601f82011682018060405250810190611bb79190612718565b905080611bf9576040517f08c379a0000000000000000000000000000000000000000000000000000000008152600401611bf090612f3e565b60405180910390fd5b8360010160009054906101000a900473ffffffffffffffffffffffffffffffffffffffff1673ffffffffffffffffffffffffffffffffffffffff16867f426b87d30760ed04a097c0113c943b597a538ae1483a0386bca1ea9380947aa160405160405180910390a350505050611ca5565b6040517f08c379a0000000000000000000000000000000000000000000000000000000008152600401611c9c90612faa565b60405180910390fd5b50611cae61211c565b50565b60045481565b60035481565b806007600082815260200190815260200160002060010160009054906101000a900473ffffffffffffffffffffffffffffffffffffffff1673ffffffffffffffffffffffffffffffffffffffff163373ffffffffffffffffffffffffffffffffffffffff1614611d62576040517f08c379a0000000000000000000000000000000000000000000000000000000008152600401611d59906127fd565b60405180910390fd5b600060076000848152602001908152602001600020905060026006811115611d8d57611d8c6122ea565b5b8160080160009054906101000a900460ff166006811115611db157611db06122ea565b5b14611df1576040517f08c379a0000000000000000000000000000000000000000000000000000000008152600401611de89061303c565b60405180910390fd5b60068160080160006101000a81548160ff02191690836006811115611e1957611e186122ea565b5b0217905550827f995328816eb12e50ec2691560298922cd9ead6191e59874ef2ef6ca8c766d72560405160405180910390a2505050565b600260009054906101000a900473ffffffffffffffffffffffffffffffffffffffff1681565b6000808211611eba576040517f08c379a0000000000000000000000000000000000000000000000000000000008152600401611eb1906130a8565b60405180910390fd5b60036000815480929190611ecd906130c8565b91905055506040518061012001604052803373ffffffffffffffffffffffffffffffffffffffff168152602001600073ffffffffffffffffffffffffffffffffffffffff16815260200183815260200160055481526020016006548152602001428152602001600081526020016000815260200160006006811115611f5557611f546122ea565b5b81525060076000600354815260200190815260200160002060008201518160000160006101000a81548173ffffffffffffffffffffffffffffffffffffffff021916908373ffffffffffffffffffffffffffffffffffffffff16021790555060208201518160010160006101000a81548173ffffffffffffffffffffffffffffffffffffffff021916908373ffffffffffffffffffffffffffffffffffffffff16021790555060408201518160020155606082015181600301556080820151816004015560a0820151816005015560c0820151816006015560e082015181600701556101008201518160080160006101000a81548160ff02191690836006811115612063576120626122ea565b5b02179055509050503373ffffffffffffffffffffffffffffffffffffffff166003547f7722e9c69a26eeff064f79754a3742797425721e0cff0817bf176630d09b108284600554600654426040516120be9493929190613110565b60405180910390a36003549050919050565b60055481565b600260005403612112576040517f3ee5aeb500000000000000000000000000000000000000000000000000000000815260040160405180910390fd5b6002600081905550565b6001600081905550565b600080600080612710868861213b9190613155565b61214591906131c6565b9050600061271086896121589190613155565b61216291906131c6565b9050818861217091906128b8565b9450808861217e91906131f7565b9350808261218c91906128b8565b9250505093509350939050565b600080fd5b6000819050919050565b6121b18161219e565b81146121bc57600080fd5b50565b6000813590506121ce816121a8565b92915050565b600080604083850312156121eb576121ea612199565b5b60006121f9858286016121bf565b925050602061220a858286016121bf565b9150509250929050565b600073ffffffffffffffffffffffffffffffffffffffff82169050919050565b600061223f82612214565b9050919050565b61224f81612234565b811461225a57600080fd5b50565b60008135905061226c81612246565b92915050565b60006020828403121561228857612287612199565b5b60006122968482850161225d565b91505092915050565b6000602082840312156122b5576122b4612199565b5b60006122c3848285016121bf565b91505092915050565b6122d581612234565b82525050565b6122e48161219e565b82525050565b7f4e487b7100000000000000000000000000000000000000000000000000000000600052602160045260246000fd5b6007811061232a576123296122ea565b5b50565b600081905061233b82612319565b919050565b600061234b8261232d565b9050919050565b61235b81612340565b82525050565b600061012082019050612377600083018c6122cc565b612384602083018b6122cc565b612391604083018a6122db565b61239e60608301896122db565b6123ab60808301886122db565b6123b860a08301876122db565b6123c560c08301866122db565b6123d260e08301856122db565b6123e0610100830184612352565b9a9950505050505050505050565b600060e082019050612403600083018a6122cc565b61241060208301896122cc565b61241d60408301886122db565b61242a60608301876122db565b61243760808301866122db565b61244460a08301856122db565b61245160c0830184612352565b98975050505050505050565b60008115159050919050565b6124728161245d565b811461247d57600080fd5b50565b60008135905061248f81612469565b92915050565b600080604083850312156124ac576124ab612199565b5b60006124ba858286016121bf565b92505060206124cb85828601612480565b9150509250929050565b6000819050919050565b60006124fa6124f56124f084612214565b6124d5565b612214565b9050919050565b600061250c826124df565b9050919050565b600061251e82612501565b9050919050565b61252e81612513565b82525050565b60006020820190506125496000830184612525565b92915050565b600060208201905061256460008301846122db565b92915050565b600060208201905061257f60008301846122cc565b92915050565b600082825260208201905092915050565b7f4e6f7420617574686f72697a6564000000000000000000000000000000000000600082015250565b60006125cc600e83612585565b91506125d782612596565b602082019050919050565b600060208201905081810360008301526125fb816125bf565b9050919050565b7f496e76616c696420666565730000000000000000000000000000000000000000600082015250565b6000612638600c83612585565b915061264382612602565b602082019050919050565b600060208201905081810360008301526126678161262b565b9050919050565b7f4e6f206665657320746f20776974686472617700000000000000000000000000600082015250565b60006126a4601383612585565b91506126af8261266e565b602082019050919050565b600060208201905081810360008301526126d381612697565b9050919050565b60006040820190506126ef60008301856122cc565b6126fc60208301846122db565b9392505050565b60008151905061271281612469565b92915050565b60006020828403121561272e5761272d612199565b5b600061273c84828501612703565b91505092915050565b7f5472616e73666572206661696c65640000000000000000000000000000000000600082015250565b600061277b600f83612585565b915061278682612745565b602082019050919050565b600060208201905081810360008301526127aa8161276e565b9050919050565b7f4e6f742062757965720000000000000000000000000000000000000000000000600082015250565b60006127e7600983612585565b91506127f2826127b1565b602082019050919050565b60006020820190508181036000830152612816816127da565b9050919050565b7f5469636b6574206e6f74206d61726b65642061732073656e7400000000000000600082015250565b6000612853601983612585565b915061285e8261281d565b602082019050919050565b6000602082019050818103600083015261288281612846565b9050919050565b7f4e487b7100000000000000000000000000000000000000000000000000000000600052601160045260246000fd5b60006128c38261219e565b91506128ce8361219e565b92508282019050808211156128e6576128e5612889565b5b92915050565b7f5472616e7366657220746f2073656c6c6572206661696c656400000000000000600082015250565b6000612922601983612585565b915061292d826128ec565b602082019050919050565b6000602082019050818103600083015261295181612915565b9050919050565b7f4e6f742073656c6c657200000000000000000000000000000000000000000000600082015250565b600061298e600a83612585565b915061299982612958565b602082019050919050565b600060208201905081810360008301526129bd81612981565b9050919050565b7f5472616465206e6f742070616964000000000000000000000000000000000000600082015250565b60006129fa600e83612585565b9150612a05826129c4565b602082019050919050565b60006020820190508181036000830152612a29816129ed565b9050919050565b7f5472616465206973206e6f7420696e2064697370757465000000000000000000600082015250565b6000612a66601783612585565b9150612a7182612a30565b602082019050919050565b60006020820190508181036000830152612a9581612a59565b9050919050565b7f526566756e6420746f206275796572206661696c656400000000000000000000600082015250565b6000612ad2601683612585565b9150612add82612a9c565b602082019050919050565b60006020820190508181036000830152612b0181612ac5565b9050919050565b612b118161245d565b82525050565b6000602082019050612b2c6000830184612b08565b92915050565b7f53656c6c65722063616e6e6f7420627579206f776e2074726164650000000000600082015250565b6000612b68601b83612585565b9150612b7382612b32565b602082019050919050565b60006020820190508181036000830152612b9781612b5b565b9050919050565b7f5472616465206973206e6f7420617661696c61626c6500000000000000000000600082015250565b6000612bd4601683612585565b9150612bdf82612b9e565b602082019050919050565b60006020820190508181036000830152612c0381612bc7565b9050919050565b7f416c726561647920706169640000000000000000000000000000000000000000600082015250565b6000612c40600c83612585565b9150612c4b82612c0a565b602082019050919050565b60006020820190508181036000830152612c6f81612c33565b9050919050565b7f5472616465206578706972656400000000000000000000000000000000000000600082015250565b6000612cac600d83612585565b9150612cb782612c76565b602082019050919050565b60006020820190508181036000830152612cdb81612c9f565b9050919050565b6000606082019050612cf760008301866122cc565b612d0460208301856122cc565b612d1160408301846122db565b949350505050565b7f5061796d656e74206661696c6564000000000000000000000000000000000000600082015250565b6000612d4f600e83612585565b9150612d5a82612d19565b602082019050919050565b60006020820190508181036000830152612d7e81612d42565b9050919050565b6000604082019050612d9a60008301856122db565b612da760208301846122db565b9392505050565b7f496e206469737075746500000000000000000000000000000000000000000000600082015250565b6000612de4600a83612585565b9150612def82612dae565b602082019050919050565b60006020820190508181036000830152612e1381612dd7565b9050919050565b7f5472616465206e6f7420657870697261626c6500000000000000000000000000600082015250565b6000612e50601383612585565b9150612e5b82612e1a565b602082019050919050565b60006020820190508181036000830152612e7f81612e43565b9050919050565b7f526566756e64206661696c656400000000000000000000000000000000000000600082015250565b6000612ebc600d83612585565b9150612ec782612e86565b602082019050919050565b60006020820190508181036000830152612eeb81612eaf565b9050919050565b7f4175746f2d7061796d656e7420746f2073656c6c6572206661696c6564000000600082015250565b6000612f28601d83612585565b9150612f3382612ef2565b602082019050919050565b60006020820190508181036000830152612f5781612f1b565b9050919050565b7f5472616465206973207374696c6c2076616c6964000000000000000000000000600082015250565b6000612f94601483612585565b9150612f9f82612f5e565b602082019050919050565b60006020820190508181036000830152612fc381612f87565b9050919050565b7f43616e206f6e6c792064697370757465206166746572207469636b657420697360008201527f2073656e74000000000000000000000000000000000000000000000000000000602082015250565b6000613026602583612585565b915061303182612fca565b604082019050919050565b6000602082019050818103600083015261305581613019565b9050919050565b7f496e76616c696420616d6f756e74000000000000000000000000000000000000600082015250565b6000613092600e83612585565b915061309d8261305c565b602082019050919050565b600060208201905081810360008301526130c181613085565b9050919050565b60006130d38261219e565b91507fffffffffffffffffffffffffffffffffffffffffffffffffffffffffffffffff820361310557613104612889565b5b600182019050919050565b600060808201905061312560008301876122db565b61313260208301866122db565b61313f60408301856122db565b61314c60608301846122db565b95945050505050565b60006131608261219e565b915061316b8361219e565b92508282026131798161219e565b915082820484148315176131905761318f612889565b5b5092915050565b7f4e487b7100000000000000000000000000000000000000000000000000000000600052601260045260246000fd5b60006131d18261219e565b91506131dc8361219e565b9250826131ec576131eb613197565b5b828204905092915050565b60006132028261219e565b915061320d8361219e565b925082820390508181111561322557613224612889565b5b9291505056fea2646970667358221220ca93ce7e1f4669a28495d7241195ca338583f045928530333e240892bb78f8ed64736f6c63430008140033",
  "linkReferences": {},
  "deployedLinkReferences": {}
}